:020000042000DA
:1000000000980020B5000020BD0000202D01002038
:1000100000000000000000000000000000000000E0
:10002000000000000000000000000000C1000020EF
:100030000000000000000000C3000020C5000020F8
:10004000C7000020C7000020C7000020C700002014
:10005000C7000020C7000020C7000020C700002004
:10006000C7000020C7000020C7000020C7000020F4
:10007000C70000207B080020C7000020C700002028
:10008000C7000020C7000020C7000020290500206D
:1000900033050020550500205F050020690500207C
:1000A0000348854600F00EFE00480047FB0A00208A
:1000B000009800200448804704480047FEE7FEE718
:1000C000FEE7FEE7FEE7FEE7D1000020A1000020EA
:1000D000062014490880082001218140124A11603D
:1000E00000BF05200007408980210840002817D163
:1000F00000BF05200007808A802108400028F8D032
:1001000005200007408980088000052109074881F3
:1001100000BF052000074089802108400028F8D052
:10012000704700000034005080E100E000BFFEE7AF
:10013000014600290AD0481E4840C003010C002295
:1001400001E04910521C0029FBD100E0102290B2BE
:1001500070477047F0B5032800D104204601F74FDF
:10016000F5194E00AF1DF41916461E432680F0BD4A
:1001700030B5032800D104204401F04D63191A1D45
:1001800001248C40148030BD30B5032800D10420F8
:100190004401EA4D63199A1C01248C40148030BD3F
:1001A000FFB504460D461646099F002F04D0294688
:1001B0002046FFF7E9FF03E029462046FFF7D8FF76
:1001C000324629462046039BFFF7C4FFFFBDF8B522
:1001D0000C461546002801D1002600E0461E009678
:1001E000009E7600D54F7037F119012802D12646BE
:1001F000083600E02646F2B200230B88012696401E
:100200001F46B7433B462E46964033430B80F8BD0E
:1002100010B50246032A00D104225001C74C03192D
:10022000188801248C402040002801D0012010BDF6
:100230000020FCE7F8B505460E4614461F46C0A050
:100240000068009021461339FF2201328A4090B2A3
:10025000FFF76EFF01460798002801DD012000E04E
:1002600000208840B74989892246133AFF23013389
:10027000934099430843B34988813F20FFF758FFD3
:10028000014607988840AF4989898909890108434F
:10029000AC49888121461339FF2201328A4090B24D
:1002A000FFF746FF014606988840A649098A22467C
:1002B000133AFF230133934099430843A14908822D
:1002C000114601228A4090B2FFF732FF01463846BC
:1002D00088409C49098A2246133A01239340994356
:1002E0000843984908823F20FFF722FF01466846ED
:1002F000405D80198840214613394900914A891888
:10030000098889098901084381B2204613384000D1
:10031000801801800221204600F02BF900BFE10681
:10032000C90E012088408849086000BFF8BD014619
:100330008448008A0A46133A012393401840012357
:100340009340DA07D20F002A01D0002293E00B4637
:10035000133B01229A4002231A40002A01D00122B5
:1003600089E00B46133B01229A4004231A40002ADD
:1003700001D002227FE00B46133B01229A40082362
:100380001A40002A01D0032275E00B46133B0122DC
:100390009A4010231A40002A01D004226BE00B4639
:1003A000133B01229A4020231A40002A01D0052243
:1003B00061E00B46133B01229A4040231A40002A79
:1003C00001D0062257E00B46133B01229A408023BE
:1003D0001A40002A01D007224DE00B46133B0122B0
:1003E0009A40FF2301331A40002A01D0082242E03C
:1003F0000B46133B01229A4001235B021A40002A5C
:1004000001D0092237E00B46133B01229A40012319
:100410009B021A40002A01D00A222CE00B46133B13
:1004200001229A400123DB021A40002A01D00B224C
:1004300021E00B46133B01229A4001231B031A4083
:10044000002A01D00C2216E00B46133B01229A40F1
:1004500001235B031A40002A01D00D220BE00B465A
:10046000133B01229A4001239B031A40002A01D02A
:100470000E2200E00F221041C0B2704770B5044652
:100480000D462146133901228A4090B2FFF750FEF3
:100490000146284688402B49098A2246133A0123FF
:1004A0009340994308432749088270BD10B504461C
:1004B0002146133901228A4090B2FFF739FE0146E6
:1004C000012088401F49C9892246133A01239340DD
:1004D000994308431B49C88110BD172806DC13281F
:1004E00004DB0246133A9200184B9950704770B5DE
:1004F0000446172C17DC132C15DB2046FFF7D6FF1C
:1005000020461338800011490D58002D01D0A8470E
:1005100008E000BFE106C90E012088400C490860D0
:1005200000BF00BF00BF70BD10B51320FFF7DFFF95
:1005300010BD10B51420FFF7DAFF10BD00300050D9
:1005400001090F190014005000E100E0180D00200F
:1005500080E200E010B51520FFF7C9FF10BD10B50F
:100560001620FFF7C4FF10BD10B51720FFF7BFFF1F
:1005700010BD10B5002819DA194A03071B0F083BF4
:100580009B089B00D2588307DC0EFF23A3409A43AD
:100590008B071B0E8407E40EA3401A43104B04077D
:1005A000240F083CA408A4001A5118E00D4A0323A4
:1005B0001B02D21883089B00D2588307DC0EFF234E
:1005C000A3409A438B071B0E8407E40EA3401A43F3
:1005D000044B032424021B198408A4001A5110BDE3
:1005E0001CED00E000E100E010B5002428E000BFB1
:1005F000D1490868C1B2D14800690170CF48C068CC
:10060000401ECE49C86008460069401C0861084683
:10061000C068002814D10021C84801610020C649E3
:100620004968490849000143C34A516000BFC348B3
:100630004469002C03D0002141610020A04706E05E
:1006400000BFBD494869C107C90F0029CFD100BF0C
:1006500010BD10B500240020B849C8600021B7487B
:100660000161B548808840084000B3498880B3489C
:100670004469002C03D0002141610120A04710BD36
:1006800010B5002426E0AD4949680878AA490860F9
:1006900000BFAA480068401EA84908600846406894
:1006A000401C486008460068002813D1486000BF1D
:1006B000A149496802229143420011439E4A516078
:1006C00000BF9E488468002C03D000209B498860AE
:1006D000A04709E000BF98496031898B0222114090
:1006E000481000BF0028CED100BF10BD00BF924906
:1006F0004869C107C90F002901D1012070470020B6
:10070000FCE770B504460D468B48808980218843FC
:1007100089498881072008810020888008468089CF
:10072000802188438030844988812004000E88809D
:10073000E0B20880084685818089802188437E490F
:1007400088810D20012181407D4A116000BF032175
:1007500000F0B8F80D2001218140794A803A1160FB
:1007600000BF00BF01218140764A116000BF002018
:100770007249087600217148016100206F49C86004
:100780004860086070BD22206B490861704738B529
:10079000012400BF00BF6849486940210140890920
:1007A000002907D000BF6449486920210140490958
:1007B000002901D1002414E000205F490861009065
:1007C00002E00098401C0090FF215F3100988842B1
:1007D000F7D3FFF78BFF002802D1FFF7D4FF0024E7
:1007E00000BF00BF204638BD30B5012000210246C1
:1007F0000B46C4018D012C4355012C435D002C4355
:100800004D4D2C6100BF00BF00BF4B4948692021FE
:10081000014049090029F7D000BF474948694021F4
:10082000014089090029EFD030BD30B5434BD96074
:1008300018615A610123404C64689C431C433E4D3F
:100840006C6000BF30BD70B504460D4616463B488F
:10085000056044608660FFF713FF38484068002851
:100860000AD00120344949680222914342001143D1
:10087000314A516000BF00BF70BD10B52E4880687E
:100880000407240F012C1CD0022C15D0042C10D0EE
:100890000C2C14D12948007E012809D100BF26491B
:1008A000486980210140C909002901D0FFF7D1FE24
:1008B00006E0FFF799FE03E0FFF7E2FE00E000BF6D
:1008C00000BF10BD10B5002819DA1F4A03071B0F1F
:1008D000083B9B089B00D2588307DC0EFF23A340F4
:1008E0009A438B071B0E8407E40EA3401A43164B52
:1008F0000407240F083CA408A4001A511AE0104A67
:10090000803A03231B02D21883089B00D258830726
:10091000DC0EFF23A3409A438B071B0E8407E40ED3
:10092000A3401A43064B803B032424021B1984086E
:10093000A4001A5110BD0000001100502C0D002021
:1009400080E100E080E200E01CED00E038B5044604
:10095000F020204001110091684600780A2801DA51
:10096000302100E03721684600780818C1B20091B4
:10097000002201216846FFF766FFFFF735FF2107D8
:10098000090F0091684600780A2801DA302100E05A
:100990003721684600780818C1B200910022012171
:1009A0006846FFF750FFFFF71FFF38BD70B50446DC
:1009B000204600F069F90546002229462046FFF747
:1009C00042FFFFF711FF70BD10B504462104080E69
:1009D000FFF7BCFFE0B2FFF7B9FF10BD10B504464A
:1009E000200EFFF7B3FF2102080EFFF7AFFF21042F
:1009F000080EFFF7ABFFE0B2FFF7A8FF10BDF8B598
:100A000004460025204600F03FF9461E05E0675DDC
:100A1000A05D6055A7556D1C761EB542F7DBF8BD8D
:100A2000F8B506460C46371E00DA7642002500BFB0
:100A30000A21304600F014F9303128466D1C21544B
:100A40000A21304600F00CF9061EF1DC002F03DA13
:100A50002D2228466D1C2254002060552046FFF7A9
:100A6000CEFFF8BD38B50446FF2C00DD38BD694621
:100A70002046FFF7D5FF6846FFF798FF00BFF5E770
:100A800010B522A0FFF792FF25A0FFF78FFF29A046
:100A9000FFF78CFF2BA0FFF789FF35A0FFF786FF3C
:100AA0003A48FFF791FF3AA0FFF780FF3F48FFF772
:100AB00095FF3FA0FFF77AFF10BD00200521090731
:100AC000088008203E49088005200007408A202130
:100AD000884320300521090748820846408A802142
:100AE000884380300521090748820846008A022190
:100AF00088430521090708827047FFF7DEFF00F0F1
:100B000061F8FFF7BDFF00BFFEE700000A0D0A0D08
:100B10002A2A2A2A2A2A2A2A2A2A2A2A2A000000B3
:100B20000A0D2A20554152542054455354202A0A74
:100B30000D0000002A2A2A2A2A2A2A2A2A2A2A2AB0
:100B40002A0A0D000A0D48656C6C6F20576F726C95
:100B50006421203D3D2055415254207072696E74CD
:100B6000665F737472696E6728290A0D00000000C1
:100B70000A0D55415254207072696E745F68776F28
:100B800072642829203D203078000000BBAA0000B4
:100B90000A0D55415254207072696E745F776F72FE
:100BA000642829203D2030780000000044332211C1
:100BB0000A0D456E64206F6620746573740A0D001B
:100BC0000033005008B500200521090708800820DF
:100BD0002249088005200007408A202188432030D0
:100BE0000521090748820846408A802188438030D1
:100BF0000521090748820846008A02218843052109
:100C0000090708820846008A02218843052109074E
:100C1000088200BF05200007808A082108400028BC
:100C2000F8D0002004230322120219460090FFF797
:100C3000B7FA00200323024605210090FFF7B0FA1F
:100C4000052000078088402188434030052109079E
:100C5000888003210920FFF754FD08BD00330050B0
:100C600070B500242546002801DA012440420029FD
:100C700001DA0125494200F00EF8AC4200D04042B2
:100C8000002C00D0494270BD421C0178401C002954
:100C9000FBD1801A704730B50B4601460020202258
:100CA000012409E00D46D5409D4205D31D469540DF
:100CB000491B2546954040191546521E002DF1DC72
:100CC00030BD0000064C0125064E05E0E36807CC68
:100CD0002B430C3C98471034B442F7D3FFF7E4F9A8
:100CE000080D0020180D002002E008C8121F08C1DE
:100CF000002AFAD170477047002001E001C1121F9D
:100D0000002AFBD170470000180D0020180D0020AC
:080D100030000000F80C002087
:04000005200000A136
:00000001FF
