:020000042000DA
:1000000000980020A5040020AD040020C5040020B5
:1000100000000000000000000000000000000000E0
:10002000000000000000000000000000DD040020CF
:100030000000000000000000F5040020F70400208C
:10004000C72C0020AB2D00200D310300992D00207E
:10005000292D00208D310300C32D0020D12D00203B
:10006000F9040020D1220020112E0020AD31030020
:1000700057810200B3270020F9040020F904002072
:10008000F9040020F9040020F90400208D2200204A
:100090009122002095220020992200209D220020FC
:020000042000DA
:1001600032000000750900208F290020B1330020E3
:10017000000000000000000063800200BD8002005B
:10018000A50E0020FB8002001981020035810200CB
:100190005D810200252B0020210F0020910E002000
:1001A0009B0E002000000000000000003F00000047
:1001B000F48B002000040000740B080048010000CC
:1001C0006807080000040000C80C080020050000B3
:1001D000000000002000000048000000580000005F
:1001E0006800000004010000160100002801000062
:1001F0002E010000202A00008E2E000001000000C9
:1002000088130000192A0020E9600200FD93020013
:100210005117002019280300A5740200BD08002012
:1002200003000000D52002000F340020040000006D
:10023000D74902000F4902000D100020639102000F
:10024000B7910200BF910200078202007182020092
:10025000345A0020AD8302009384020041850200DD
:1002600015860200378602005F860200758602004E
:10027000F9870200258902005D8A0200D38C020002
:10028000098D02000F900200438D0200278E0200AC
:10029000F98E0200478F0200CF0D0020D58F02009B
:1002A00049510200775102002F5202001000000055
:1002B00020030000803E000000000000000000005D
:020000042000DA
:1002C000504600030003983A6400F401B80B000C98
:1002D000B80B120030003000CD009A01120024004B
:1002E00030006400B0001800280012001200D0078F
:1002F0000000FFFF00000000000000000000000000
:100300001F00000244413134353833000000000042
:1003100000000000000000000000000000000000DD
:0403200000000000D9
:020000042000DA
:10034000FFFF010000C201000000000000000000EB
:100350000000F40101000116000703030A18110749
:100360002F2A93A6BDD84152AC0B10992EC6FEED94
:10037000000000000000000000000000000000007D
:10038000000000000000000000000000000000006D
:100390000000000000000000000042696B65426C34
:1003A00065000000000000000000000000000000E8
:1003B000000000000000000000000000000000003D
:1003C000000000000000000000000000000000002D
:1003D0000000000000000000040107CAEA80D00706
:0403E000064064323D
:020000042000DA
:100440000348854604F03EFF00480047C7200200ED
:10045000009800200F4906200880FF200E49013037
:1004600008600E4988683E2290432E308860002242
:10047000052000070280018A0F231B021943018215
:1004800001210748C90404C1401E0028FBDA62B6F6
:10049000704700000034005080E100E0003300505D
:1004A000FF0B00001548804715480047042071469F
:1004B000084203D0EFF3098012490847EFF30880A0
:1004C0001049084704207146084203D0EFF3098021
:1004D0000D490847EFF308800B490847042071468F
:1004E000084203D0EFF3098008490847EFF308807A
:1004F00006490847FEE7FEE7FEE700005504002036
:1005000041040020290500201105002011120020BF
:100510000349C8200880034908204880FEE70000FE
:10052000003100500033005005200007018A0422EA
:1005300011430182018A0222114301820189402272
:1005400011430181054A01211160418A0122890874
:100550008900D203114341827047000080E200E02D
:1005600010B5040003D02068002802D002E000206B
:1005700010BD00BE04F0B8FE204604F0B5FE012018
:1005800010BDFFB581B0029900260A9F1D461C468A
:10059000102902D9002005B0F0BD002801DA01269B
:1005A0004042029904F0A6FE0A2901DA303107E040
:1005B000039A002A01D0412200E0612251180A3931
:1005C0002170641C0028ECDC601B302102E02170EB
:1005D000401C641CB842FAD3002E02D02D2020709B
:1005E000641C00202070601B0021440807E0421AB0
:1005F0005219203A6B5CD67F6E54D377491C8C42DB
:10060000F5D8C8E770B5044625680498691A511AE8
:100610004D1E854200D22846002106E026685D5C1A
:10062000357025686D1C491C25608142F6D3216810
:1006300000200870104670BDFFB589B006460790CF
:100640000020089013780F46541C0798801B401C0C
:10065000B84261D2252B05D03A46314607A800F0B2
:10066000FFF855E025780021641C302D09D1207851
:10067000641C002850D03038092800D8C1B2257831
:10068000641C6C2D01D0682D02D108952578641C5E
:10069000692D21D008DC002D3ED0582D24D0632DAB
:1006A00040D0642D06D117E0732D40D0752D1BD09E
:1006B000782D19D02520009071A33A46314607A81D
:1006C000FFF7A0FF2B463A46314607A800F0C8F8CE
:1006D000022075A3009016E00C9A01CA0C92002229
:1006E000009101AB0A210AE00C9A752D01CA0C9207
:1006F000F5D00091582D13D0002201AB1021FFF747
:1007000040FF01AB00903A46314607A8FFF77AFF59
:100710002378641C002B98D107980DB0801BF0BD86
:100720000122EAE70C980378001D0C9094E70C98DE
:1007300020C80C90284600F08BF82B460090E2E78A
:1007400010B55A4A00201168002904D008464968AB
:10075000116000214160FFF703FF02F00DF85348DC
:10076000001F4068002809D00468204600F070F897
:1007700001464F4A204602F00BF810BD00F02DFA5A
:1007800010BD0FB470B54B48C0B00078002805D03C
:10079000002040B070BC08BC04B01847FF2145AB36
:1007A00068460131449AFFF747FF0025684600F08C
:1007B0004FF8461C0321082004F0A2FD04002BD0B2
:1007C0000321304604F09CFD206000280FD06946CC
:1007D000656004F06DFDEFF31081012080F3108857
:1007E000324A0123121F5068002804D004E020463A
:1007F00004F07AFD10E013702C4A002802D1146036
:1008000005E010464268002AFBD14460656000297B
:1008100004D0012080F310880120BAE70020F9E716
:10082000014625A0ADE710B5204C241F20780028F4
:100830000DD000F0F4F96068006800F009F8014696
:1008400060681B4A006801F0A3FF0020207010BD03
:100850000146002000E0401C0A5C002AFBD17047E2
:1008600010B50468611A491C914201D3002010BDE3
:1008700023700168491C016000200870012010BD30
:10088000464154414C3A20756E737570706F7274A6
:100890006564207072696E7466206368617261635A
:1008A0007465723A200000002E0A000004800020C7
:1008B00041070020C40608002573000070B51646E5
:1008C0000C460546012802D00C2D26D10DE006224B
:1008D0002149224804F01AFD00281ED006221F4993
:1008E000304604F019FD062012E01D4D29680878F5
:1008F000C00610D52078202803D2002020700420C4
:1009000070BD0A7E30463A3104F006FD2868007E4C
:100910002070002070BD012070BD3246214628465F
:1009200004F000FD70BD70B50E480F49C405228863
:1009300080252A4322800D4A53891B0701D4401E7B
:10094000FAD20B4A012010600622044804F0E4FCAD
:100950002088A843208070BD383E03000880002016
:10096000C0060800A0860100D47F040020000050CB
:100970000080004008B500F0E0FA052400252407B7
:10098000C8266B4F0EE01420009500F079F9042181
:10099000684604F0CDFC002801D000F026FAFFF7ED
:1009A00042FF0BE02089000608D501208007006B7C
:1009B000000403D404F0C2FCC0070BD072B602F0EE
:1009C00075FA042810D0022815D0032813D0012866
:1009D00020D020E0042004F0B7FC009004F0BAFC22
:1009E00000980028DBD0CEE752480078012801D0DB
:1009F000032000E0022000F011F8A08A800602D552
:100A00004D490820088030BF4C48016904229143B9
:100A1000016100E030BF62B63E80C3E7F8B504462E
:100A20006846052504702D07288A0421084328827A
:100A30004348444FC0690126012811D9032C18D11D
:100A400004F08EFC002814D004F090FC002810D094
:100A5000032004F091FC00280BD00220387009E03C
:100A6000032C06D1032004F087FC002801D03E703F
:100A700000E0022468460470204600F023F80020BD
:100A80003149022C087001D0032C1AD12F494A8811
:100A9000FF2301339A434A806A882D4B1A804A8883
:100AA00032434A8000900099491C00911429FADBD6
:100AB000698989088900491C698169894906FCD5C9
:100AC0006880F8BD10B5022801D0032828D11B4941
:100AD0000B69042213430B61052109074B8A20246B
:100AE000A3434B820B8A022423430B821023022848
:100AF000488A16D0904348827F2208889201802439
:100B0000204308800020401CC0B20A28FBD3488A3A
:100B1000184348820F48521E42610888A04308804B
:100B200010BD10434882488A9843488210BD000097
:100B300000310050540208000033005000ED00E086
:100B4000E0010020C40608007D8000202000005045
:100B50007E800020008000407047000044480178FB
:100B6000002902D08021417070474249002008705E
:100B70004149C87070473E480178002902D0812160
:100B8000417070473B49012008703B49C87070476D
:100B900037480178002902D08221417070473549D9
:100BA0000220087034490120C8707047002804D022
:100BB000012803D0022802D1EAE7CFE7DBE770473C
:100BC0002C4900200978002904D0012903D00229EA
:100BD00000D1022070470120704725488178002904
:100BE00004D0491E0906090E817017D142780021F0
:100BF000002A04D09207920F0270417004E002783C
:100C0000002A01D0521E02701206120E017005D089
:100C1000012A02D0022A01D1BAE7ACE7704700B539
:100C2000134A9078401C90701078002805D1FFF787
:100C3000C7FF431CFFF792FF137000BD0C48C0783C
:100C400070470020EFF31081012282F31088052203
:100C500012071289120605D40848028901231A4393
:100C600002811846002900D0012181F310887047C5
:100C70000F80002054020800C60608000033005010
:100C80007CB5E84D04462878002821D0E648018844
:100C90004907FCD4C188009180880190080401991B
:100CA00040180090E14920464843009904F022FB97
:100CB0000190002028700198A860009821468001CA
:100CC00004F018FBE860DA4844432C61009868613E
:100CD0007CBDD549488008880322104308800888D5
:100CE000042210430880CF4901200870704770B576
:100CF000052109070889302290430881088980234B
:100D000018430881088980088000401C08810889F0
:100D1000082210430881C74804881C4304804C8A79
:100D200094434C820D89402425430D810D8A04266D
:100D3000B5430D828D8AAD07FCD5BA4EAA257560E4
:100D40008588F026B543B035858085880326360230
:100D5000B543858085882D092D01858085880126EC
:100D6000B602354385808588760035438580858841
:100D70007600354385804D8A95434D82028852081E
:100D80005200028002889A4302800A89A2430A81A3
:100D90004089800503D5A74905206031888001205E
:100DA00080070168821591430160A34801683F22D2
:100DB00052029143421489180160016802031143F1
:100DC000016070BD10B59D4804F0DCFA10BD70B52F
:100DD000984C6088C006050F04F0DAFA61881E227C
:100DE00091436A001143618070BD70B59449012040
:100DF000C863C86B0028FCD101208007C1699148F5
:100E000000220368994200D20260864C0126637872
:100E10008D4D002B04D06270016004F0BFFA11E028
:100E2000026819238A1ADB019A4214D3016004F084
:100E3000B5FA2988884201D9411A00E0091A89B215
:100E4000182908D32880012004F0AEFA04F0B2FA81
:100E5000002800D1667070BD08B5724989684843A2
:100E60007A4904F047FA009008BD08B500210091C6
:100E70006C490122D203C968904205D304F052FDA7
:100E80008905800A084301E04843800A009008BDB4
:100E900008B5FFF7E1FF009008BD08B5FFF7E5FFD3
:100EA000009008BD08B56A4901204A695206D20F70
:100EB00013D04A699206D20F0FD000220A61009225
:100EC000FF225F32009B5B1C00939342FAD3496977
:100ED000C907C90F02D004F073FA002008BD1FB57E
:100EE000684601F07AFB009804F070FA1FBD594B78
:100EF0000020197800290DD051490122CA63CA6B1C
:100F0000002AFCD101218907C969534A126891421C
:100F100001D20120704700211970704700207047EE
:100F200010B54E4900200860FFF74CFF01208007F4
:100F3000016B49004908016310BDF8B5012045491E
:100F4000474C0870C825258000266680454808273C
:100F5000478004F041FA01F03DF90D20790180014C
:100F600004F040FAFFF7DFFC03F0C2FF012004F0B9
:100F70002DFA01F06FFCFFF7BAFE042000F04AF8EA
:100F8000072000F047F80A2000F044F8062000F09F
:100F900041F80B2000F03EF8012000F03BF8022061
:100FA00000F038F8002000F035F82F48006804F011
:100FB0001FFA00F0AEF800F0E7FF00F0D6F901F0FC
:100FC0008CF8A0050168821511430160FFF787FFC7
:100FD0001420FFF77EFE1420FFF752FEFFF7BEFD40
:100FE00003F059F804F008F8FFF79AFF052000070E
:100FF000C68210494888E0229043A03048800120F2
:1010000004F0FCF9258017484780F8BD10B504F0BE
:10101000FBF910BDC106C90E0120884013490860C4
:101020007047000014800020001600500024F400D7
:10103000102700002000005000020040E2040000E1
:10104000C00000407C0408007804080040420F0003
:10105000001000500E800020D06000208C0308009B
:1010600000310050003300500490002080E200E086
:10107000FEB5784D019117461E4600240090294682
:1010800004F0C8F9050005D033463A4601990098A6
:10109000A84704462046FEBDFFB581B01F460E4658
:1010A0004D780C78002004F0BBF9042824D00028E7
:1010B0001DD121E06848816E2E2060430918888880
:1010C0000207120F130004F0B1F9070505050F051B
:1010D0000F050F008204920E062A05D27278012AAB
:1010E00012D0072210438880641C6407640F2846CE
:1010F0006D1EEDB20028DDD13B463146039A0198C2
:1011000004F09AF905B0F0BD204604F09BF90020E8
:10111000F8E770B551480378021D0021504D07E0F3
:10112000CC00165D002E01D12418A560491CC9B25F
:101130009942F5D370BD028908894A49101A80B2D4
:10114000884201D90120704700207047FFB586789A
:101150000446300281B00E30009004F061F900289E
:1011600001D0FF2652E00021442004F0C9F83E4F90
:10117000B5007851442104F06BF90121009804F086
:101180006DF979590298888079596088C8807859B2
:1011900022792030417CD20749084900D20F1143FF
:1011A000417478590622A11D3B3004F0B5F87859F6
:1011B000617940304170785906223430039904F047
:1011C000ABF8795904982031887602980D281DD003
:1011D000264810230088009A81B2254804F044F97B
:1011E0000546608828806079687228460622A11D1D
:1011F0000A3004F091F8A0896880E089A880208AEC
:10120000E880A07C2872284604F034F9304679E75B
:1012100081692039897F082905D2114A8900103255
:10122000515881617047FEE70D4A12493032002063
:1012300008CA401C08C11028FADB01200E49C0066C
:1012400008600E49CA691202120ACA610A49803945
:101250000860704784430300D802080004060800B1
:10126000685A002030750000540508006001002015
:10127000013800001084004080E100E000ED00E053
:1012800070B516460D46104604F0CAF800286AD01C
:10129000340A304604F0C4F8012812D0A87A1E2877
:1012A00011D029460A310E2846D019DC801E0300D1
:1012B00004F0BCF80B255929592D59315939593E9B
:1012C0005900022070BD3146314804F0D9F80021A0
:1012D000204604F0DBF80221304604F0BFF842E07B
:1012E00018283DD006DC102819D012282CD016283A
:1012F00039D131E0522823D0D22834D128E02046F9
:1013000004F0CAF82FE0204604F0CCF82BE0204689
:1013100004F0CEF827E0204604F0D0F823E0204681
:1013200004F0D2F81FE01B4A2046126890471AE0EA
:10133000204604F0CFF816E0204604F0D1F812E081
:10134000204604F0D3F80EE0204604F0D5F80AE079
:10135000204604F0D7F806E0204604F0D9F802E071
:10136000204604F0DBF8002070BD70B50A48037811
:10137000021D0021094D07E0CC00165D0A2E01D1A7
:101380002418A560491CC9B29942F5D370BD00006C
:10139000012800004C5A002004060800385B002099
:1013A000F7B507461646019804F0BEF80546C4880E
:1013B000384604F0BFF8401E844200D2204684B272
:1013C00022460B21384604F0BBF80746002E05D014
:1013D00033460A21019A04F0B9F8FEBD29467C8003
:1013E00022460831381D03F097FF384604F0B4F860
:1013F000FEBDF8B50646002000900C464A8801461E
:101400006B46304604F0AEF8020001D061881EE061
:10141000608804F0ADF8002817D005890120EAB2F1
:10142000002104F0ABF80C4B0CCB104019400843E2
:101430000BD032020223294608480A3204F014F87D
:101440006188018004F016F804E0618800223046CB
:10145000FFF7A6FF0020F8BD308000200228000022
:10146000F8B50D46064681002B48EA884458521CC0
:1014700020686B89018F294F51430091014640310B
:101480004A89C989511A8AB2991A89B2B94214D2C1
:101490009A4212D0294604F077F82D892049009805
:1014A00003F028FF2818801C4034E0823002401CE2
:1014B00080B2042103F0D2FFF8BD2821304604F0A9
:1014C00069F8F8BDF8B50546870013480C46C059C1
:1014D000C9880068114E024640325389D2899A1A4F
:1014E00092B28B1A9BB2B34211D20B4E8A420ED0EB
:1014F00004F056F8F05905225F30611C03F00CFF30
:101500002802401C80B2052103F0A8FFF8BD282165
:10151000284604F03FF8F8BD4C030800FF7F0000A8
:101520001027000070B50446007800250D2801D072
:101530000A2200E002225A494B7A002B06D00D28DD
:1015400004D0637C032B01D0432551E0097A8A4300
:1015500039D10D2809D00E2802D00F2803D134E04C
:10156000607C032804D3402542E0607C0328FAD83D
:10157000A07C0428F7D20A2908D0607C012822D058
:10158000022820D06078032809D811E004F00EF872
:10159000012806D16078032803D0002801D049250E
:1015A00026E004F003F8002802D160780228F6D87B
:1015B0003020035D22462046E17C3132143000F0B9
:1015C00019F8054614E0422512E003F0EFFF012868
:1015D00007D16078052804D1A01D03F0EDFF002895
:1015E000DDD003F0E3FF002802D160780228D6D8CE
:1015F000284670BDFFB5002086B001216A461170F3
:10160000044605910021002C06D0089D099A1F234D
:101610009A4234D9402032E01C23069D079AF7E70E
:101620006B185E78330003F001FF1D2610101010B8
:1016300010101010102626262626262626262626B8
:1016400026261010101010102600059B03E06F4690
:10165000FF5CB74204D05B1E5BB2002BF7DA03E0FD
:10166000002B01DB4A2006E0059B6F46FE54059BDC
:101670005B1CDBB205936B5C491C5918C9B29142E3
:1016800001D20028CCD0914202D04A200AB0F0BD4D
:10169000641CE4B2022CF9D20028B3D0F6E70000B3
:1016A0009805080070B5EFF31085012080F31088CD
:1016B0002C4803F087FF0446002D1DD0012080F345
:1016C0001088002C2DD020464038C08F26498842F3
:1016D00027D16189208903F07BFF05000ED02146C8
:1016E0001031A38962892089A847002806D00128E3
:1016F00017D0022815D105E00020E0E7204603F0CE
:101700006DFF0EE0EFF31085012080F3108815487F
:1017100021460C3003F068FF002D0CD0012080F32F
:101720001088EFF31084012080F310880D480068C2
:10173000002802D004E00020F1E7012003F05AFF66
:10174000002C03D0012080F3108870BD0020FAE740
:1017500010B5BC21054803F07BFE0549012003F0CC
:101760004FFF10BDA80508003883000004060800DC
:10177000A516002000B502790021130003F056FEE3
:101780000C34070735352035353535352734427962
:10179000042A27D8C279530707D05207520F012ACB
:1017A00003D0042A01D0052A1CD18279002A01D055
:1017B000012A17D1007AC01F0A2816D3062114E087
:1017C0004279521E0A2A10D3082242710DE0407954
:1017D00042070AD04007400F012806D0042804D051
:1017E000052802D00A2100E00721084600BDF3B514
:1017F00081B001980C460102CA1D022332480E3105
:1018000003F032FE04700199054602272F488E002E
:10181000002C06D0042C16D0062C10D0072C3FD15B
:1018200008E0815905224968897C11406970805916
:10183000C77335E0084603F0E9FE687030E0805970
:101840000F21C1732CE0044680594068417C012976
:1018500002D1007E01280FD0019803F0DDFE0121A6
:101860000028A0590BD04268D07D00281CD0012848
:101870001AD004280DD00FE0002068700DE04068F9
:10188000C27D022A01D0042A06D1007C02280BD195
:1018900002E0107C022807D06F70A1590320C873A2
:1018A000284603F0E7FDFEBD6970F6E701460A78B9
:1018B0000120042A01D90020704749780029FBD073
:1018C0000129F8D170470000021C0000280508001B
:1018D000FFB589B00D4600206946059008720B9847
:1018E000000A009003F098FE07460B9803F098FD5D
:1018F00000287DD00B982978000A8400784E0129B1
:1019000063D0042904D0062948D0072968D125E0EE
:101910003059C17B032901D0042961D1697800299C
:101920001AD040681022A91C03F0F6FC002F06D044
:101930003159C87B032807D0042808D050E030591B
:10194000C07B032803D04BE00B20C87348E005217F
:10195000009803F067FE43E00120B6E03059C07BF9
:101960000E283DD1009803F051FE002103E02A1813
:10197000401C9170C0B21028F9D3688A6946088368
:10198000294606A808221431023003F0C5FC06AB34
:10199000AA1C3946009803F04BFE21E03059C07B69
:1019A0000F281DD1AA1C0A21009803F047FE002F22
:1019B00004D03946009803F047FE11E000231A4690
:1019C0003946009803F046FE0AE0012F08D10B9833
:1019D00003F026FD01281CD0002801D0022005902C
:1019E0006846007A002811D002AA0521009800E07C
:1019F0000CE003F023FE6846027A6020024368464A
:101A0000027201233946009803F024FE05980DB0B8
:101A1000F0BD3059C07B0228E2D16878002851D04F
:101A200002210B9803F01AFD305907224068A91CC7
:101A3000173003F071FCE878002804D13059406871
:101A4000407C01283AD0009803F00AFE002837D0E5
:101A5000297A009803F00AFE002833D0009803F09A
:101A60000BFE0121009803F00DFE00282CD0305908
:101A70004068417E00292BD0042929D0C17E027DF7
:101A80001140C17630594068017F427D1140017795
:101A90006846007A0028A7D1305902214268009890
:101AA000173203F0CBFD305941684031897B002962
:101AB00013D004210098FFF79AFE91E7022004E07A
:101AC000062002E0082000E00320694608728BE748
:101AD0000021C17630594068D9E70B21C1737FE7F7
:101AE00028050800F8B50546FD49123080B2496E58
:101AF0002A2250430C1804202071241D03F0C8FD35
:101B000000902046093004226946064603F004FC92
:101B100003F0BEFD009004226946601C03F0FCFB4C
:101B200003F0B6FD009004226946601D03F0F4FB4B
:101B3000EC4A2946964600204E22EB4BB4465143D0
:101B4000420066469619727836781202324376461B
:101B50003668871C76187F00FF18F253401C022855
:101B6000EEDBE249A80008580822611C783003F037
:101B7000D3FB2802401C80B20D2103F06FFC0D2125
:101B8000284603F08BFDF8BDF3B5044681B0042070
:101B900003F08AFD0246D549A0000858002A25D046
:101BA0000299082270300B3103F0B6FB02992046EF
:101BB00013318C460022CB4B4E21CB4E484355006F
:101BC00061466F1879783F78090239431F683F18DA
:101BD000AD197953521C022AF1DB20460299FFF716
:101BE00081FF2046029903F065FDFEBD6030C17B98
:101BF000490704D50621204603F062FDFEBD2102FF
:101C0000491C807B8DB2002807D07D2252012946D5
:101C1000B74803F05BFD032100E00121284603F0F3
:101C20001DFC0621204603F057FDFEBDFFB581B027
:101C30000398070A03F0F4FB0646102836D004DCAC
:101C4000002E37D0082E04D130E0142E32D0152EBD
:101C50000BD0A64CBD0060596030C07BC00607D5D4
:101C60003D21384603F096FC24E0022005B0F0BD8B
:101C700003F038FD01281DD1032E07D19C4803999C
:101C800003F0FEFB60590121603081736059182216
:101C90006030C17B1143C17360598030007C0028E3
:101CA00004D00721039803F0D9FBDEE738460299F8
:101CB000FFF76AFF0020D9E710B50C4603F018FDC6
:101CC00021888A00894989580968002902D0894BEE
:101CD000C968995010BDF8B50E461046150A03F0B4
:101CE0009FFBAC00814F002817D0142815D0152871
:101CF00009D038596030C07BC00606D53D21284642
:101D000003F048FC09E0022008E003F0EBFC0128A6
:101D100003D131462846FFF7A3FB00203959096853
:101D2000002902D0734AC9681151F8BDFFB50F46AA
:101D30001546110A6D4A8800125881B012681E4675
:101D4000002A01D0D46803E06A4A002314581350D3
:101D5000002C18D0201F4288674B9A4213D100886C
:101D6000602810D12046403002898A420BD18088F9
:101D7000002808D0A068002802D0204603F0BEFC4E
:101D8000204603F0B1FA33462A463946019803F05B
:101D9000BBFC6BE7F8B5160A544CB5006059174602
:101DA00000281CD04030017E104603F057FB384617
:101DB00003F036FB012802D006280FD108E0615954
:101DC0006031C87B020709D5F7221040C87305E0CF
:101DD00060598030417C304603F0DCFB0020F8BDC8
:101DE000F0B50646050285B0681C009080B2014639
:101DF00002903F4803F044FB0121029803F02EFBC0
:101E000003F070FC394CB7000128E05903D0603072
:101E1000C17BE72214E06030807B002809D07D225E
:101E200052013348029903F051FC0321029803F058
:101E300015FB304603F06EFCE0596030C17BEF22A9
:101E40001140C173E0596030C17B4A0711D5FB22B4
:101E50001140C1730098ED1D82B225480024A9B23B
:101E600004230D3803F000FB4680047003F002FBEE
:101E7000FCE600220121304603F052FCF6E610B5E4
:101E80001046140A03F0CCFA0B280CD01749A00016
:101E900008586030C07BC00603D53D21204603F0C2
:101EA00079FB002010BD2046FFF79AFFF9E770B5D7
:101EB00010460D46140A03F0B3FA002828D014285F
:101EC00026D015281AD00949A00008586030C07BD8
:101ED000C00615D53D21204603F05CFB18E000004C
:101EE000D8020800E0010020300008004C03080080
:101EF000240400003880002038830000022070BDD8
:101F000003F0F0FB012803D129462046FFF7DAFA57
:101F1000002070BDF8B507461D460E461446104613
:101F200003F07EFA142806D02B4622463146384666
:101F300003F0FCFBF8BD0020F8BDF8B507461D46D0
:101F40000E461446104603F06BFA142806D02B46B2
:101F500022463146384603F0EFFBF8BD0020F8BDBD
:101F6000FEB5124D019117461E46002400902946E9
:101F700003F050FA050005D033463A46019900981F
:101F8000A84704462046FEBD70B509480378021DE7
:101F90000021084D07E0CC00165D012E01D1241868
:101FA000A560491CC9B29942F5D370BD8C410300AC
:101FB00004060800585C0020FEB5514D01911746FB
:101FC0001E4600240090294603F024FA050005D09F
:101FD00033463A4601990098A84704462046FEBD7C
:101FE00070B5064614460D46104603F019FA240A49
:101FF000002836D04348301806D001281FD00C28BE
:1020000021D00E2827D11AE02878002829D03E4D6B
:10201000A600A859428E002A23D041230121204640
:1020200003F090FBA95900204886A85900680028B1
:1020300017D1200201210E3003F010FA11E02878A8
:10204000002808D10DE0204603F082FB0A2808D1C1
:102050002878002801D0412100E00021204603F02B
:102060007DFB002070BDF8B515460C46104603F008
:10207000D7F92F0A00282CD0234DBE00A859408E36
:102080000D280BD02148A2780088217983B23846E8
:1020900003F06AFBA859408E00280CD02078002855
:1020A00019D04123A8590121428E384603F04AFB3A
:1020B000A95900204886384603F04AFB012803D07E
:1020C0004621384603F04AFB22796188384603F0FE
:1020D00051FB0020F8BD0023E4E7F0B50D480E23C6
:1020E000021D0B4C0578002107E0CE00975D9F4252
:1020F00001D13618B460491CC9B2A942F5D3F0BD6C
:1021000028490300F4FBFFFF54050800600100208C
:10211000885C002004060800F3B5054620498000CD
:102120000C582802401C87B281B00026384603F0C4
:1021300077F9152807D19520005D002803D003F01A
:10214000D1FA002818D023464033988AD98A884289
:1021500000D808464004020C99823946114803F021
:10216000B5FA012194200155384603F077F98034FF
:10217000607D002805D101E01F26F8E7A07D00283A
:102180000CD000206075A075022003F08DFA0028A5
:1021900004D029463046029A03F0F2FAFEBD000050
:1021A0004C030800230400000520000701883022AA
:1021B00011430180018803221143018070470520EB
:1021C0000007018830229143018001888908890035
:1021D00001807047704710B5032800D10420384CA7
:1021E00040010019490008181A43C28010BD032895
:1021F00000D10420324A4001801801228A408280A6
:102200007047032800D104202D4A40018018012284
:102210008A404280704770B50646049814460028EC
:102220000D46304602D0FFF7ECFF01E0FFF7DFFF7D
:10223000224629463046FFF7CEFF70BD70B5012417
:102240002146133881400D4688B200F029F88440B9
:102250001C48C189A9430C43C48170BD10B5044614
:10226000133804280AD82046FFF7E8FF1649A000D3
:1022700040188038406B002801D0804710BDE1062F
:10228000C90E012088401149086010BD1320E5E700
:102290001420E3E71520E1E71620DFE71720DDE74C
:1022A00000280AD0411E4840C003010C002001E074
:1022B0004908401C0029FBD100E0102080B2704783
:1022C00000300050001400502090002080E200E018
:1022D00010B5FFF774FF052109078888174AC30B5B
:1022E000104618D0164B1C88640714D5117889073E
:1022F00010D519880222114319801988490849000C
:1023000019804468002C05D0985E0421595E0A2289
:102310009A5EA04710BD8988C906FBD51178C90708
:10232000F8D0084901228A800A8880239A430A80CB
:1023300080680028EED0804710BD0000508000204B
:102340000002005000010050284910B5884201D910
:10235000642010BD2649411878290BD86321090152
:10236000401A0004792103F011FA4821484300146F
:102370001C300FE01E49E0314118DF290CD85521EF
:102380000901401A0004E02103F000FA1821484333
:102390000014001DC0B210BD16494118DF2908D82D
:1023A00047210901401A0004E02103F0EFF98013EE
:1023B000F0E7002010BD10B5044600F080F8032CB3
:1023C0000DD10D484089800509D5012000F04CF859
:1023D00080B200F009F8012C03D0002010BD0020CD
:1023E000F4E7FFF7B1FF10BD70470000A906000039
:1023F000CFF9FFFF8FFBFFFF2000005008430121B2
:10240000890303460B4341490B80414B1843088025
:10241000092002434A8070473C490A880F239B01E8
:1024200000079A43800D02430A80704737483949B4
:10243000028802231A430280491E02D302889207AF
:10244000FAD400210181408970470AE000BF00BF33
:1024500000BF00BF00BF00BF00BF00BF00BF00BF84
:1024600000BF401EF2D2704770B5022251020446EE
:102470004E003046FFF7C2FF1420FFF7E6FF002CA6
:1024800001D0092000E00720FFF7C6FFFFF7CEFFCD
:1024900005460120FFF7D9FF022200213046FFF751
:1024A000ADFF002C01D0092000E00720FFF7B4FFAA
:1024B000FFF7BCFF4019154A0021118070BDF0B52F
:1024C000124C154820801420FFF7BFFF01256D0234
:1024D000A580E5802088E9000843208020888E10B0
:1024E000B0432080FFF7A2FF0746208830432080BA
:1024F000FFF79CFF0246780071424018281A5200EC
:102500005118691AA080E180F0BD0000001500504C
:1025100001400000A08601000148000008B58921A3
:102520000520000701810121634A490311800188C8
:1025300080221143018001888908890001805F4859
:10254000018A02221143018200F0AEF903F024F95E
:1025500003F028F90020694601E00888401C088043
:1025600008889128F9D308BD08B55549002008808E
:102570004880554A534BD380FF23D2331381C88000
:10258000C3215180514A082111806946088003E027
:102590006A461188491C1180694609889129F7D338
:1025A0006946088003E06A461188491C1180694623
:1025B00009889129F7D3694601E00888401C088002
:1025C00008889128F9D308BD414A508091800120A4
:1025D0001080D088C007FCD17047F1B5FFB0FFB0C4
:1025E00094B011AC35480494008AA41C1090FFF7F5
:1025F00095FF334801880F9141880E913249CA886E
:102600000D920A890C92C2880B92408B0A90314835
:102610004088099048888446FFF7A6FF00252B468E
:10262000FF2111A8FFF7D0FF00210A460846049EAB
:10263000275C365C7E40F607F60F8E401643491C39
:10264000C9B2F2B2082906D1FFA9C96C4A556D1C5E
:102650000021ADB20A46194FC82620373E801030FF
:10266000FF2680B2B600B042E1D95B1C9BB2022BC0
:10267000D6D31249109808821449002008801048C7
:102680000F9901800E9941800F490D9ACA800C9ACA
:102690000A810B9AC2800A9A42830E4A0998508096
:1026A0006046488005200007018880229143018010
:1026B0007FB07FB015B0F0BD00020040E0300050A8
:1026C000002400508080000060280050202000502E
:1026D000003500500026005030B4594C5849594834
:1026E000603409E043681A780A6002685B1C521E75
:1026F0000CC00838002A05D0A28B9207D20FF1D166
:1027000030BC7047002242604B680224A3434B60F8
:1027100081680029F4D0826030BC0020084730B5C1
:10272000474A93898024A34393810723138100237D
:102730009380958925439581050A9580C0B21080C4
:1027400091819089A04390813F49A00108603F4A50
:102750001168FF242402A1430324A4032143116030
:102760003949803908603A49086036480376036180
:10277000C3604360036030BD3148A02101614169FD
:102780008906C90FFBD041694906C90FF7D07047C8
:1027900010B52C4CA26021606060FFF79DFF60685F
:1027A000002805D02649486802229043104348601B
:1027B00010BD10B5224881680907090F01291AD0F8
:1027C00002291CD0042917D00C2914D11D4A117ECE
:1027D000012910D141690906C90F0CD00021D1602F
:1027E000116183885B085B0083805369002B02D0F2
:1027F00001205161984710BD00F004F810BDFFF7AB
:102800006BFF10BD0F490E4809E002680B691A7092
:10281000CA685B1C521E0B61CA60002A04D0426960
:10282000D207D20FF1D1704700220A6143685B08DA
:102830005B0043604B69002BF5D000204A611847CC
:10284000001100505C80002080E100E00CE400E01A
:1028500080E200E030B587498748CA0514888023A4
:102860001C431480854C65892D0701D4491EFAD27A
:10287000834C01212160834C01882180824940885A
:10288000088010889843108030BD00207047704742
:10289000704770470020704701218907086B0722A5
:1028A000104308637047704730B57949774808602E
:1028B00078494C200880774C774B203C238278491C
:1028C00076484880784877490180764919314180B7
:1028D0002221418181218900018274494182744908
:1028E00001837249113141836F4A724920329180CC
:1028F0004122714912018A80704ACA806F4D103599
:10290000CD810A824A82921C8A826A1FCA82FF2271
:1029100046320A836A4A4A836A4A592111806949C0
:10292000694D20310D8043254D80684D5582D5225B
:102930008A80FF22D3320A81654A4A81654A8A81A8
:10294000664A654911805349654A60394A80CA8898
:1029500010252A43CA805C4A0A3A0A814D4D614AD1
:10296000403D6A80638208224A814749554A098866
:10297000403A118243495C4A098811805B490978D1
:10298000002901D03021018330BD4008704700B5D7
:102990008BB0574A4262574A8262574A4261574A4D
:1029A000C262574A0260574A0262574A4260574A17
:1029B000C261374A35480021106035484038026B03
:1029C00003129A430263426B1F231B049A4303239F
:1029D0001B04D21842634E480268C3129A43026035
:1029E000026803139A43026068464154491CC9B205
:1029F0002829FAD301462822464802F08DFCFFF729
:102A000053FF02F0CBFC44490880002002F0CCFCCC
:102A100002F0D0FC0BB000BD10B51D491B4808608A
:102A20001B484038416B1F221204914303221204B9
:102A30008918416300060168C908C90001600520C2
:102A40000007018989088900491C01810189082240
:102A500011430181FFF728FF3048006F00780028FC
:102A600004D02F4800880B496039C880012002F04B
:102A7000C5FC10BDA0860100087F040020000050A6
:102A800000800040560208004A0308004C05540725
:102A900080000040602C00507F7F0000AC290000C7
:102AA0000022005009090000002400502204000008
:102AB00030D00000EE110000002500502E02000072
:102AC00044200000402800500D9500000242000004
:102AD000E4DC00001092000053780000002A00504F
:102AE0008B1000009DD5000000260050788000204B
:102AF0008B2800208F28002095280020992800206E
:102B000091280020A7280020932800208B2900204E
:102B1000000200402000080078040800E0010020C6
:102B20005204080010B50124A407A06BFEF7B5F904
:102B3000CF4902F0DFFB27221201511A00D10121F7
:102B4000CC4A50601160206B082188430843206301
:102B500010BDFFB500256A461570C74909680029F0
:102B60007CD00A464032937C002B77D0C34CC44BB8
:102B7000012813D0098D26460907803E0127366FAC
:102B8000C90EFF04C919715A6E46890B317131792A
:102B9000002963D03179012906D011E06E46E16C3D
:102BA0003170002199700BE011894E267143B54EAA
:102BB00025688919695A6E460D0AD17C691A3170E7
:102BC000317800294BD0B04DAF49603DAE6E097BE6
:102BD0002E254D43B446751905E0491C4907490F98
:102BE0002E254D4365446E463678761E37063F0ED9
:102BF0006E463770F1D1AD786E06760E6D462E7149
:102C00002D79AE06B60E6D462E722E2569439D4D6A
:102C1000A469463D4919615A6D46C906C90F297311
:102C2000012805D000209870287B00280FD10BE0E8
:102C3000287B002802D1287A00280FD0107D002898
:102C40000CD101201AE009E0287A002806D0107D76
:102C5000002803D1D07D08210843D075FFBD01288D
:102C6000FCD0002D02D09878002806D0107D0028D6
:102C700003D1D07D08210843D07500209870FFBD96
:102C800010B5052000074189890708D041898908C6
:102C9000890041817D494A88520852004A80018951
:102CA000802211430181018A042291430182818A99
:102CB0008907FCD502F07CFD0120800701690169CC
:102CC0004907FCD510BDF8B56D4EF08800282AD113
:102CD00001200527F0803F077889800720D0B88A37
:102CE000400701D502F004F9684D28888021084387
:102CF0002880674CFF20608004202080FFF754FA72
:102D00007D21C900E088A288000480188842F9D992
:102D100005202080B0887880298880208143298000
:102D20005C4910200860F8BD70B5FFF748FAFFF75E
:102D3000A7FF534C00265848E680018949084900FE
:102D4000018101208007816904221143816102F021
:102D500035FD5049102080310125086002F034FD16
:102D600002F038FD1420FDF7B4FF48482670408972
:102D7000800510D5607800280DD14848657000881E
:102D8000C00708D10120FFF76FFB8B218900884223
:102D900001D90220607070BD10B502F021FD00F075
:102DA00060F837490120087010BD10B50120800778
:102DB000008A000604D500F054F81420FDF789FFBE
:102DC00010BD10B50120FFF7C4FE02F00FFD10BDCD
:102DD00010B50124A407208A000718D50220FFF7A8
:102DE000B8FE02F009FD2068400040086100084379
:102DF00020602068C00FFCD11E48803001680906A1
:102E0000090E01D0012101601D490420087010BD88
:102E100070B52348008885062248AD0E44681748DF
:102E2000006F0078002802D1284602F0EBFC1E4813
:102E30000089134EC00507D520060BD5E00709D041
:102E4000284602F0E5FC03E0200603D5E00701D0A8
:102E500003203070200403D5E00501D50220307036
:102E600070BD10B506490120C87002F0D7FC10BD36
:102E700071020000400000406C030800E0010020E7
:102E80007A8000204A000800380308002000005023
:102E90000016005000E200E0003300500015005022
:102EA0000020005000020040002C0050F0B5694C9A
:102EB00085B00027606D3E460290FDF7BFFE002101
:102EC000654D002802D12879022800D10291FEF731
:102ED0000EF800280ED102F0A7FC00280AD05E48A8
:102EE0000127C0780028F9D005252D07A88AC0073A
:102EF00001D00427ABE002F021FA0028FAD15748AC
:102F0000806900284FD0606D0290534C0190A178E9
:102F100002A802F08FFC00287ED0012080074069C3
:102F2000400679D42046817802A802F001FA0028F0
:102F300072D00198029000244948FDF7A9FF019042
:102F4000484A01208007016A914202D2016AC829D9
:102F5000F9D801208007006AC82800D801243E481B
:102F6000817802A802F066FC002870D0012080075A
:102F7000406940066BD43848817802A802F0D8F93D
:102F8000002864D00298002803D0002C01D0401EF5
:102F900002903548FDF77CFF344A01461278123022
:102FA000022A02D002E00298AFE71130304A52897B
:102FB000019A01248A1AA407E36B9B0A9B0213431C
:102FC000E363E26B2B4B80021A400243E263E06B47
:102FD000C002C00A49050843E0630298042700289C
:102FE00001D0001D02902449096802F09BFC23498E
:102FF000096802F07FF9184900900979002900D08A
:10300000012102F01DFC1E48C06A8047FDF786FFC3
:1030100000280AD0288800E019E0302108432880E1
:1030200028880321084328800126206B0004C00F54
:10303000FBD014480168C905FCD5002E01D0FFF76C
:10304000BEF802F003FC2889802188432881384695
:1030500005B0F0BD60020020C6060800A805080003
:10306000540B0000260200001D0D00005402080051
:1030700020000050FF03E0FF248000202880002073
:103080001C07080000020040FFB5002685B0154669
:1030900041486A46344637461082002904D004224B
:1030A00003A802F039F902E00020C0430390002099
:1030B00016E003990141C90710D00F990201511878
:1030C0000A79022A02D0102A05D102E0761CF6B253
:1030D00001E0641CE4B20989C9198FB2401CC0B276
:1030E000A842E6D300940023324601970E99059832
:1030F00002F0B2FB00242AE003992141C90724D041
:103100000F9927017E18F18802A8009101900F986D
:103110003279C35905983189008802F0A3FB002851
:1031200013D17189002910D03079022807D10F9866
:103130000222C05904A902F0E9F800280DD068461F
:1031400071890089F26802F093FB641CE4B2AC421E
:1031500001D20028D0D009B0F0BDF0684078FF2837
:1031600009D00899002906D005996A46097812897C
:10317000511A089A11546A461089411C11807189AC
:10318000F26802F075FB0028DFD16B4602220121B4
:10319000188902F073FBD8E70328000010B512214C
:1031A000244802F071FB24491C2002F073FB00212B
:1031B0001C2002F053F910BD30B503460120002158
:1031C00003241A46CA40D20704D04D0022466D1C83
:1031D000AA401043491CC9B20929F2D330BD0246A6
:1031E0000020122901D98D207047062A06D0072A0F
:1031F00007D0082AF8D10729F5D170470829F2D15C
:1032000070470629EFD3704770B50A4C05462188F0
:1032100002231C22094802F027F9058002F02AF94E
:10322000E088002102F03CFB01211C2002F016F98D
:1032300070BD000082800020AC5D002004700000A2
:10324000FEB53B4E1C2070801D461746344608884C
:10325000FFF7B2FF0290374833460190083313223C
:1032600002A90097A01D02F021FB040008D1F088FC
:10327000002102F015FB044601211C2002F0EEF8AB
:1032800001231C2229462C4802F0EEF8047002F0BB
:10329000F1F80020FEBD70B50C4625490B80207862
:1032A000082814D8CA880831415C51188DB2822D83
:1032B0000BD06178FFF793FF010009D16D1C617895
:1032C000A8B2A21C02F0D4FA08E0822100E0812119
:1032D000194B17485B1CDA1C00F03FF8002070BD4A
:1032E00070B51D460C46088802F0E6FA104AFF2821
:1032F0001071158009D0A178D08802F0D1FA02218E
:103300001C2002F0ABF8002070BD0B4B89219B1CE8
:103310009A1C074800F021F8F5E710B5044A180A8E
:103320001279904202D10888FFF76EFF002010BD8D
:1033300082800020985C0020017000000A790270F1
:103340004A7942700B8883701B0AC3708A790271B4
:1033500049884171090A81717047F8B514460F46D2
:103360001E460546428801880623204602F07CF866
:103370000446287902F0A6FA20802771668020464C
:1033800002F078F8F8BD70B51446428800790D4611
:103390000102042334480C3102F066F8002D01D0FC
:1033A000132100E012210170448002F063F870BD27
:1033B00038B5202069462D4C08706088002800D060
:1033C000401C0B4680B20122002102F057FA6088AF
:1033D000002800D0801C80B2402102F079FA00F071
:1033E00089FAFFF7DBFE0024214D09E0401940690E
:1033F000002803D0641CE4B2804701E0641CE4B2FE
:1034000020461C214843295CFF29EFD138BDF7B580
:103410000D46202002F004F8022805D1EAB220234C
:103420000299009802F0A0F91C2001F0F9FF02288F
:1034300005D1EAB21C230299009802F095F9009890
:1034400000240B4E070208E03B460343641CE4B231
:10345000EAB20299009802F087F91C206043305CC0
:10346000FF28F1D1FEBD00000D300000F604080079
:103470006860002010B50E21104802F005FA1049CE
:10348000362002F007FA0121362001F0E7FF10BDD7
:1034900070B50A4C0546628821880223094801F06C
:1034A000E3FF058001F0E6FFE088002102F0F8F973
:1034B0000021362001F0D2FF70BD00009680002070
:1034C000FC5D002009D80000FEB5DA4C1F460D4611
:1034D00062800023D84816E0914212D13118496821
:1034E00000290ED01C214B4318184068019000920F
:1034F0002A78A01D6B68A968FFF7C6FD060008D0F2
:1035000011E05B1CDBB21C265E43815DFF29E3D129
:1035100012E028782072E088002102F0C1F9002131
:10352000362001F09BFF012336223946C34801F0C3
:103530009BFF067001F09EFF0020FEBD70B51D468A
:103540000C46088802F0B8F9BA4AFF2810711580B5
:1035500009D0A178D08802F0A3F90221362001F029
:103560007DFF002070BDB54BB44A5B1C0932892138
:10357000B048FFF7F2FEF4E7F0B5AE4815460C464A
:103580000279190A8FB091427DD12388C188007ACF
:10359000591A8EB2B04278D90AAA0EA9184602F07A
:1035A0009DF96846018D2046A54A08300190914258
:1035B00018D1208800F05BF907A902F095F9684658
:1035C000808B4005800F012800D00020214600F0AC
:1035D00039F905062D0E2DD161882088019A02F057
:1035E00047F926E00020944F15E0A94211D1D119E6
:1035F000896900290DD0019900911C256843C019E3
:1036000085696388A288E1793046A847050008D01B
:1036100010E0401CC0B21C2141430A46B95CFF299E
:10362000E3D1A288002AD7D061882088019B02F0CC
:1036300061F90546E079002828D0002D26D12088A0
:1036400009AA02A902F05CF968460089801D83B2CC
:103650007848428801887948C01D01F005FF074677
:1036600068460289B81D099901F056FE7148007933
:1036700002F028F938807E8068460089B880384694
:1036800001F0F8FE02E00AE0FFE78225A0790128B8
:1036900005D16848218800792A4602F037F90020D0
:1036A0000FB0F0BD70B5634C0E4608782188628873
:1036B000122802D0132808D018E060480623001D05
:1036C00001F0D2FE0546608906E05C480623801DB5
:1036D00001F0CAFE0546A0896880207902F0F2F860
:1036E000288070782871284601F0C4FE002070BD43
:1036F00070B5504D0C46287902F0E4F821888842D4
:1037000007D1E8886188A21D401880B2A18802F024
:10371000AFF8002070BDFEB5464D0C46287902F08A
:10372000D1F82188884223D1E8886188A21D4018F9
:1037300080B2A18802F09CF8E8886188401880B2C5
:10374000297A00F0B3F86A4601A902F0D9F8009886
:103750000088012801D08B260BE0E888618840189A
:1037600082B200213348FFF70EFE6088688112E0C4
:10377000812632486A8829880623001D01F074FEDC
:10378000074660887880287902F09CF838803E717E
:10379000384601F06FFE0020FEBDFEB5254D0C46FB
:1037A000287902F08FF82188884223D1E88861883F
:1037B000A21D401880B2A18802F05AF8E8886188FA
:1037C000401880B2297A00F071F86A4601A902F027
:1037D00097F800980088022801D08B260BE0E88833
:1037E0006188401882B201211248FFF7CCFD608841
:1037F000A88112E0812611486A8829880623801D45
:1038000001F032FE074660887880287902F05AF885
:1038100038803E71384601F02DFE0020FEBD10B507
:10382000044A180A1279904202D10888FFF730FE44
:10383000002010BD968000206860002001D80000A4
:103840000229000002464B880020022B01D00D20E7
:1038500070470989002A05D00029F9D00129F7D03D
:10386000812070470029FCD00229F9D1704770B53A
:1038700086B0044601F07CFE05461D4E0EE06A4609
:1038800004A9204602F02AF868460088B04203D115
:10389000641CA0B206B070BD641EA4B2A888A04289
:1038A00002D8E888A042EAD20020F3E7F0B585B05C
:1038B000044601F05DFE0E4E0546FF360C4F0FE04C
:1038C0006A4604A9204602F009F868460088B0421A
:1038D00002D1204605B0F0BDB84207D0641CA4B2A6
:1038E000A888A04202D8E888A042E9D20020F1E7E7
:1038F0000328000010B50E212B4801F0C5FF2B490D
:10390000202001F0C7FF0021202001F0A7FD10BDFD
:1039100070B5254D0646298804232022244801F04D
:10392000A3FD0446287901F0CDFF2080A670204633
:1039300001F0A0FD70BD7CB504461B4E1C483188CB
:1039400008232022C01E01F08FFD048005460024BC
:103950001FE03019817A890708D5620001215219C8
:103960005180817AFD221140817203E000206100C4
:103970004919488060008019C0886A46801C80B25E
:1039800001A901F0BDFF009829190078641C887115
:10399000E4B2307BA042DCD8284601F06BFD012167
:1039A000202001F05BFD7CBDA6800020B05E0020E1
:1039B00006800000FFB587B00F46072069460872F1
:1039C000BD4C2020608038780025022856D820730E
:1039D000002646E0B8194078A1190591887201289F
:1039E00005D16946087A0821084369460872207B98
:1039F000012805D96946087A1021084369460872EA
:103A0000099800907000AD490019019103900023BE
:103A1000052202A9801D01F049FF05001CD1039871
:103A20000021C08801F03CFF05460598807A0128F6
:103A300012D1122069460874039804ABC088012291
:103A4000401C80B2002101F019FF03989C49C088F6
:103A5000801C80B201F03CFF07206946761C08728A
:103A6000F6B23878B04202D9002DB3D007E0002D6D
:103A700005D10121202001F0F1FC00E08125012386
:103A8000202290480A9901F0EFFC057001F0F2FC49
:103A900000200BB0F0BDF0B585B00D4600206946A2
:103AA000854E08813380288801F006FF3071FF2899
:103AB00001D0002452E0834B89215B1C9A1C7E4874
:103AC000FFF74BFC52E061007B482A190E18039265
:103AD0000491F0880327801C80B201210A3201F092
:103AE000C7FE75480019817A012920D1E978042799
:103AF000012915D104996B4649198A881A81898848
:103B000001290DD1032181720398017A807A8142C3
:103B100006D0F0880021801C82B26748FFF733FC92
:103B2000F08802AAC01C80B2022101F0A1FE624806
:103B3000007B01280CD9E000411968460C31FFF7E1
:103B4000FDFBF0886A46C01980B2072101F090FEA3
:103B5000A978F08801F0A4FE641CE4B25648017B09
:103B6000A142B0D80221202001F078FC002005B04D
:103B7000F0BD70B5504D0C46287901F0A3FE2188A8
:103B8000884221D1A078297B88421DD2E17864291E
:103B90001AD840004019C088E21C801C80B2012164
:103BA00001F066FEA07829460A31415C890709D5F3
:103BB00040004019C0880021801C82B22846FFF7CF
:103BC000E2FB04E08A2000E08120FFF7A1FE002054
:103BD00070BDF8B50F463849802500200A7B09E002
:103BE00044006118C9883B88C91C8B4200D100255C
:103BF000401CC0B23049824201D9802DF0D0401E15
:103C0000C6B2002D0FD1787A397A0002084369468E
:103C100008800AD0012808D08025274839880079F3
:103C20002A4601F073FE0020F8BD234C70000019F5
:103C3000C0880A46C01C80B2022101F019FE684605
:103C4000008801281FD0A019817AFD2211408172BD
:103C5000F8790028E1D01848062301881948202265
:103C6000801D01F001FC04461348007901F02AFE92
:103C7000208069460988A170090AE17026712046F2
:103C800001F0F8FBC9E7A019817A02221143DEE7AF
:103C900010B50878122802D14878FFF739FE0020C5
:103CA00010BD10B5044A180A1279904202D1088852
:103CB000FFF741FE002010BDA68000206C5E0020B2
:103CC000010200000180000010B500F01CFC00F0B3
:103CD00007FD00F082FA0020FCF768FF10BD0C22FF
:103CE0005043254A10B580188078FF2803D00888F3
:103CF00000F056F810BD01F093F910BD10B500F0BA
:103D000049FA002801D001F08BF910BD10B501F07F
:103D100087F910BD10B500F038FE10BD10B504468F
:103D2000497800F047FB204600F08CFE204600F06A
:103D30007DFE10BD10B5044600F0BFFE002810D077
:103D40004C200E49604340184030417A0022204602
:103D500000F0D5F9204600F0CAFE204600F0A1FE92
:103D600010BD204600F0D6FE204600F09AFE204608
:103D700000F0ADF910BD0000D0800020F2800020DE
:103D80000021F74A05E0834201D101207047491C18
:103D9000C9B20C234B43D35CFF2BF4D100207047F6
:103DA000F8B505460024EE4E0AE080198168002926
:103DB00004D0641CE4B22846884701E0641CE4B2E5
:103DC00020460C214843315CFF29EED1E44E00240B
:103DD0000C3609E08F19B968002903D0FFF7D0FF2E
:103DE000002809D0641CE4B20C216143705CFF28F8
:103DF000F0D10024DB4E10E0641CB968E4B2284620
:103E00008847F1E780190169002904D0641CE4B2F5
:103E10002846884701E0641CE4B220461C21484340
:103E2000315CFF29EED1F8BD70B5CD49CE4C0E46C0
:103E30000C36CC4D0DE052185268002A07D0C2B2A1
:103E40000C235A4351184968401C60702DE0401CF7
:103E5000607060780C2242438B5CFF2BEBD10AE050
:103E600089194968002903D0FFF78AFF002809D083
:103E70002078401C207021780C204143705CFF2882
:103E8000EED117E020780C21414389194968401C84
:103E900020700AE04919C968002909D0C1B21C2262
:103EA00051434919C968401CA0708847002070BD63
:103EB000401CA070A0781C2141436A5CFF2AE9D114
:103EC0000020A07060702070012070BDFFB581B02F
:103ED00005461E46144618460A9F01F075FD0090DF
:103EE0002E7029463846009A01F016FD0246C82079
:103EF0009E4908239E4E002A02D008807380FEE768
:103F00002A78A24202D908807380FEE7A24200D339
:103F100022462A700099029801F0FEF9009801F0FB
:103F200029FD05B0F0BDF0B58F4899B0C0680028F4
:103F30005CD1502332220D218E4801F095FA0446BF
:103F4000894E0025F0600E20207065701920A58034
:103F50004001A0814000E0810720207401206074AE
:103F6000A57421460B2014310090481E20231C22EA
:103F700017910190FFF7AAFF21460C2031310090E4
:103F8000481E20231F2218910290FFF79FFFF06820
:103F90001A22C17C2030571A007C1D210E1A684657
:103FA0000574002F01DC002E20DD3E21017406AADD
:103FB00004A9022001F0B0FC0028684601D0057475
:103FC00014E0017C002911D08F4205DBE27C1798B8
:103FD00006AB1218019807E08E4207DB2034227CE2
:103FE000189806AB1218029800F006F95E48C068EF
:103FF00019B0F0BD70B55C4D84002D1D2959002904
:1040000011D101020A2332225B480E3101F02CFA51
:104010000A2101702851102181800821418000214E
:10402000C1807D210181285970BD70B54E4DA868B1
:10403000002821D14F48222332220D210A3801F0D5
:1040400013FA032101700446A8600A2044496070F5
:1040500010222139A01C01F05FF900216182217535
:1040600061751720E082102020833C206083A183AB
:104070006420E08320342170A86870BD3D4810B5ED
:10408000012332220D210B3801F0EEF902210170DB
:1040900001F0F0F910BD344810B50C21183001F0D2
:1040A000F3FB31490020183101220C2343435B18F4
:1040B000401C00061A71000EF7D029493220303119
:1040C00001F0E8FB0021322001F0C8F910BD10B565
:1040D000044601022848022332220A380E3101F038
:1040E000C3F90C220121544301701F4A132141706E
:1040F00018320021A218D17001F0BCF910BD70B5C2
:104100000D4601021C4814462C2332220C380E3175
:1041100001F0AAF9014620310D724C7201F0AAF9A2
:1041200070BD00E710B5FFF7FEFE01F0A3F90E49E0
:104130000020C8600221322001F090F910BD10B5B6
:104140000446FFF757FF01F095F9074A0020A10048
:10415000121D50500421322001F080F910BD0000E2
:10416000445F002068600020B880002000310050CB
:10417000003300500E3400000E380000274B10B5FD
:104180009A4201D91A4602E0002A00D1012201F028
:104190009DFAE3E710B50121322001F05FF9FFF746
:1041A00043FEDBE740E610B5FFF73FFF01F062F9A1
:1041B0001B4900208860D1E7194A002124324B00B6
:1041C000D35C834203D14800801840787047491C73
:1041D000C9B20A29F3D301207047114910B5002054
:1041E000FF232431012442008B545218401CC0B2DA
:1041F00054700A28F7D3B1E770B50646481C107012
:10420000092015460C46507022461946A81C01F09C
:1042100083F83078A41C0019307070BD3075000030
:10422000B880002010B5104601F0FAF8002809D136
:10423000012332220D215B4801F016F901210170A2
:1042400001F018F9002010BD70B50D78564C0E2DF8
:1042500023D008DC012D14D0022D0CD0032D16D054
:104260000D2D08D10BE00F2D09D0102D07D0112DE9
:1042700005D0122D03D02568002D00D0A8470020BE
:1042800070BD48780028FAD1FFF78DFFF7E748782E
:104290000028F4D1FFF732FDF1E7487800F02EFF57
:1042A000EDE7F8B51C4610460E4601F0B9F80228B5
:1042B00027D1240A0C20274647433C483D18AC70C0
:1042C000FF2C1AD00121E9700521322001F0C6F837
:1042D00036483188C153707A68713146A81D06226C
:1042E0000A3101F019F84C20314960434018403040
:1042F000417A00222046FFF702FF3146204600F0B7
:10430000D2FE0020F8BD70B50C46097816460A2981
:1043100008D0254D2968002902D021462C68A047E5
:10432000002070BD104601F07BF80428F8D16078B9
:104330000028F5D10521304601F090F8F0E710B5DE
:1043400010460C4601F06CF8032803D0052801D074
:10435000042802D1204600F0D5FE002010BD10B583
:1043600010460C4601F05CF8012808D1207800289E
:1043700005D1FFF717FF002801D0FFF7C7FC002089
:1043800010BD0020704700207047FEB51C46064D4A
:10439000089B08262D1D6F4668C71346224600F06D
:1043A0009CFAFEBD02340000845F0020D080002013
:1043B000F2800020F8B50E464C21484313490024F2
:1043C00045184120465501F063F929192031641C34
:1043D000E4B20870082CF6D300241027381BB04232
:1043E00001DD002007E001F053F9C117090E09189B
:1043F000090A0902401A2919641CE4B20874102C35
:10440000ECD301F045F92885F8BD0000F2800020CA
:1044100010B50A78180A130001F008F808051212FE
:10442000120812121012FFF775FC09E04A78012AEF
:1044300001D0002A04D100F08FFE01E0FFF76EFCEE
:10444000002010BDF8B51C0A4C256C43234D0F7895
:1044500065192C461E0A4034022F0AD0032F1BD0A8
:10446000052F1FD01E4C2568002D00D0A847002026
:10447000F8BD89786172C9070BD00C214E431949E8
:10448000284671184A79A27043300622891D00F02F
:1044900043FF00F0A5FEEAE73046FFF718FE0020D4
:1044A0006072E4E728462A301722891C00F034FFA6
:1044B000DDE710B5180A00F063FE002010BD0020F3
:1044C0007047FEB51C46064D089B04262D1D6F4601
:1044D00068C71346224600F000FAFEBDF2800020B5
:1044E000D85F0020D080002010B520210323322285
:1044F000880200F0B9FF0121017041700021817034
:1045000000F0B8FF10BD10B50120FDF754FF404981
:10451000087010BD10B53E4CE170227163712070BF
:1045200010BD10B53A490A22C88032213948FFF738
:1045300025FE10BD70B506461C23322220213648C8
:1045400000F092FF324D04462E8106802020FFF7B6
:1045500033FEA0700122E2700021A1802B7823722B
:10456000A372E1806172E1722C4BA381E18104238B
:1045700023746174A274204600F07CFF00230122A2
:1045800019461846FFF7C6FF2548FFF7CAFF70BD5A
:1045900070B51F4C01256570E078002803D0617963
:1045A0002079FDF72EFE1B48A570C8223221401C41
:1045B000FFF7E4FD70BD10B504461748042332220E
:1045C0002021C01C00F050FF114909890180002101
:1045D0008170C47000F04EFF10BD70B50120FDF772
:1045E000EAFE0B4D04462878844202D02046FFF7AD
:1045F000E2FF2C70E878002803D0052C01D2FFF7E9
:10460000C7FF70BD10B53221024800F039FF10BD60
:104610003E81002001C8000002800000AD2700009C
:104620007017000010B532220C460123114690028B
:1046300000F01AFF2178017000F01CFF002010BD6F
:104640000020704710B5FFF7DDFF002010BD0020EF
:10465000704710B51446FFF7C0FF1A48214602887C
:104660001948FFF78BFD002010BD70B5174815469F
:104670000078002818D0164C16491748124E227898
:10468000761C09780078002A05D0FDF7B0FD0020DF
:104690002070142204E0FDF7B4FD012020700522F3
:1046A00029463046FFF76AFD002070BDFEB51C4666
:1046B000089B0626094D6F4668C71346224600F040
:1046C0000CF9FEBD4481002001C80000418100209A
:1046D000408100204381002042810020FC5F0020B7
:1046E000704710B51C2102233222880200F0BCFE64
:1046F000FF217431018000F0BDFE10BD70B505468C
:10470000042332221C21074800F0AEFE0446058037
:104710001C20FFF751FDA0700020E070204600F043
:10472000A9FE70BD03700000FEB510460E4600F0F5
:1047300077FE01287ED13078002876D10E233222F0
:104740001C21484800F090FE0446002020700B20F9
:104750006070024644A1A01C00F0DEFD204600F07F
:1047600089FE0A2332221C213E4800F07DFE0446C9
:1047700001202070072565702A463EA1A01C00F08C
:10478000CBFD204600F076FE0B2332221C2135485B
:1047900000F06AFE044606202070082767703A463B
:1047A00036A1A01C00F0B8FD204600F063FE0823EF
:1047B00032221C212B4800F057FE052202700446CD
:1047C000427031A1801C00F0A7FD204600F052FE8F
:1047D0000A2332221C21234800F046FE044604200E
:1047E000207065702A462AA1A01C00F095FD204685
:1047F00000F040FE0A2332221C211A4800F034FE49
:104800000770044645700120A070D22168460180DF
:104810000B21C90141807901818006226946E01C93
:1048200000F07AFD204600F025FE322201231146D9
:10483000900200E005E000F017FE3178017000F012
:1048400019FE0020FEBD00207047FEB51C46089BE7
:104850000226114D6F4668C71346224600F03DF808
:10486000FEBD0000027000004469616C6F67205358
:10487000656D69004441313435387800123456FF93
:10488000FE9ABCDE00000000782E792E7A0000002F
:10489000765F352E302E34002C600020FFB583B0BB
:1048A0001E4F002401AEA00000963D5803A80FC87B
:1048B000A84700280ED0641C062CF4D3174C241FE4
:1048C0002068002803D003AD0FCD2468A047002046
:1048D00007B0F0BD68460079FAE7F8B5089C9C4639
:1048E000079D0346002C16D0641E14D40C4FE6001E
:1048F000AE5B9E4201D0BE420BD1E3005B195C6807
:10490000002C08D013466246A04706990870002084
:10491000F8BD641EEBD50120F8BD0000406000200A
:10492000FFFF000010B5052000070089000608D52C
:1049300001208007006B000403D400F0FFFCC007D7
:1049400001D0002010BD012010BD000070B5744DD5
:1049500084002959002916D101021E2332227148F0
:104960000E3100F081FD01210170417028510022BB
:104970008270C270052202710222027210224271FC
:1049800006228271C171285970BD10B50446FFF727
:10499000DDFF00F06FFD0020614AA100505010BD06
:1049A00070B55F4D84002D1D2959002901D008469E
:1049B00070BD01021E2332225A480E3100F054FD10
:1049C0000421017001214170285170BDF7B51746CF
:1049D0000446FFF7E5FF524D0646A4002D1D285959
:1049E0001021801C00F050FF28593A46801C019984
:1049F00000F092FC304600F03DFD00202851FEBD45
:104A000070B5474D84000C352959002901D008465E
:104A100070BD01021E23322242480E3100F024FDF7
:104A20000721017001214170285170BD10B5044665
:104A3000FFF7E6FF00F01EFD394A0020A1000C320E
:104A4000505010BD70B50446FFF7DAFF05464C2004
:104A50004443354841212418085D2877208D688219
:104A60002146284620310822143000F055FC21460A
:104A700010311022A81C00F04FFC70BD70B5284DFD
:104A8000840010352959002901D0084670BD010263
:104A9000244812233222001D0E3100F0E5FC28517B
:104AA00070BD10B50446FFF7E9FF00F0E3FC1C4AB7
:104AB0000020A1001032505010BD70B50D464C21A1
:104AC0004843194944184920005DC0070DD02046CD
:104AD00020300822A91C00F019FC002805D1208DE7
:104AE0002988884201D1012070BD002070BD10B519
:104AF0000446FFF7C3FF012101704C214C430A49D2
:104B000041226118525C42741022401C103100F0A6
:104B100003FC10BD10B5FFF7B1FF0021017010BDFF
:104B20004881002014380000F28000207047704750
:104B300070B50D460446FFF7F5FE002807D079480A
:104B40002A46201880B2322100F0C0FD70BDFCF76B
:104B500078F87448322204231146801E00F084FC49
:104B60004580047000F086FC70BDF8B596466E4A2C
:104B70009C468318C8266D4F08220024069D002BF2
:104B80002BD0012B08D0022B0CD06749C91E41182D
:104B90000A2939D30120F8BD6346724600F095F822
:104BA000287047E00878431E092B12D81A46830064
:104BB0005F481B1FC6585F4B9E423AD10346920086
:104BC00028339B5883504A8808781146FFF7B0FF76
:104BD0002FE03E8058484280FEE74B88002B06D0ED
:104BE0005648834207D33E8053484280FEE73E80CA
:104BF00051484280FEE708784A491A46401880B278
:104C0000322100F063FD14E04749891E4018C0B20C
:104C1000411E09290DD88200454811188039C86FF6
:104C2000002806D0CC674249283151188039CC671A
:104C300080472C700020F8BD70B50A460146C82098
:104C40003A4B08243C4D002905D03C4EB14205D3D7
:104C500018806C80FEE718806C80FEE7344B0020E3
:104C600084001C59002C04D0401C0A28F8DB0020CA
:104C700070BD84001A51401C0406240EF7D0204653
:104C8000FFF756FF204670BD70B50446401E092848
:104C90001AD82748A1000D18803DE86F002813D0CE
:104CA000274EB04210D01F483221201880B200F0A9
:104CB000E7FB1C48322204231146401EEE6700F039
:104CC000D3FB047000F0D6FB70BD10B508780C461D
:104CD000411E09291FD882001548121F8258184BFF
:104CE0009A4205D10022890042502830425010E0FB
:104CF000890040580F4988420BD1322204231146C3
:104D0000084800F0B1FB217801706188418000F013
:104D1000B1FB002010BD0549C820088006490820C5
:104D20004880FEE705C80000FD37FFFF0031005056
:104D3000608100202F4B00200033005030750000B0
:104D40002D4B002010B5362110233222880200F0AE
:104D50008BFB0021144A03E0362B0DD0491CC9B24D
:104D60001C234B43D35CFF2BF6D1002141608160B3
:104D7000818100F07FFB10BD1C2359438918097AFB
:104D80000170F2E770B50546042332223621074848
:104D900000F06AFB044605803620FFF70DFAA0708C
:104DA000204600F067FB70BD6860002002D800005C
:104DB00010B510460C4600F033FB012809D1322211
:104DC00001231146900200F04FFB2178017000F0A2
:104DD00051FB002010BD00207047FEB51C46089B0B
:104DE0000226044D6F4668C713462246FFF775FD3D
:104DF000FEBD000058600020F8B50024E443284EB2
:104E0000054600275E20784381198878AA2803D0B8
:104E1000601C11D13C460FE0C878002804D0284619
:104E200017221E30203103E0284607225530573123
:104E300000F06CFA002802D07F1C052FE2DB601C1A
:104E400007D1184F05213C7E601CC0B200F052FA19
:104E500039765E204443A01929465E22801C00F06A
:104E60005BFAF8BDF3B500240D4F81B026465E20F5
:104E70006043C519294616310822019800F046FA08
:104E8000002808D1A98A0298814204D15E204443B7
:104E9000E619B61C02E0641C052CE8DB3046FEBDBA
:104EA000B08100207083002038B50024032504233E
:104EB0002D022A46194620460094FDF7ACF900223F
:104EC0000323052110460094FDF7A5F900F034F8FE
:104ED00000231A46042118460094FDF79CF901208E
:104EE0000023014600902A461846FDF794F938BD84
:104EF00010B505242407208A022188432082A08A35
:104F00000007FCD50B484188FF2201321143418044
:104F1000FCF78AF9FFF7C8FFA08840210843A0806A
:104F200003210920FDF7FBFB608A202108436082F2
:104F300010BD000020000050F8B5214E00241F4D88
:104F4000371F287800900322315D385D002312025C
:104F5000FDF761F9641C042CF3DBF8BD38B50024BF
:104F6000684604708A88891D00F0D6F96846017881
:104F70001248012902D0002903D003E00121017069
:104F800000E00470FFF7D8FF38BD704710B50B493B
:104F9000012048700BA0FBF743FC10BD074800211F
:104FA00041700170C8E710B5044900200870FFF790
:104FB000C3FF07A0FBF734FC10BD00008C8300206A
:104FC00084610020636F6E6E65637465640D0A0012
:104FD00063757374315F696E69740D0A00000000B7
:104FE00010B5FFF74BF810BD10B5A14C2078FFF7B6
:104FF000A6F80020A07010BD10B59D48002181705A
:105000009C4805220270FF2242704C2282705A2274
:10501000C27001714171FFF7C6FFFEF755FE10BD6A
:1050200070B57D209449C000FFF706FE9049487096
:10503000FFF777F88F494A790B7912021A43521C0D
:1050400092B20A71130A4B718C4B9A4202D1002220
:105050000A714A710446C07C1C23864906221B1A29
:10506000062B08DB23461433C01800F055F9E07C0A
:10507000801DE0740DE025462035287C1F231B1A77
:10508000062B09DB3134001900F046F9287C801D1D
:105090002874FFF747F870BD7949C820088079491E
:1050A00008204880FEE770B50C4605460C2076497E
:1050B000684340188078FF2817D06D4E357070789F
:1050C000FFF7E2FD60880838092805D2A08800288B
:1050D00002D1E0887D2805D07D206C49C000FFF713
:1050E000ABFDB070FFF752FF03E0FFF757FFFFF78C
:1050F00097FF21462846FEF7F2FD70BD442800D1F7
:105100008EE7704710B55A4CA078002803D0FFF7FF
:10511000BBFD0020A070322000F082F90446FFF7AA
:105120003DFF032C03D0052C01D0042C01D1FFF747
:1051300077FF10BD70B5564C041909D0554DEC429F
:1051400006D14C88022C04D0042C01D1FFF706FFB5
:1051500070BDFFF71AFF70BD1FB5497801290BD04C
:10516000002908D14CA11EC903946C460EC410221C
:105170006946FFF72BFC1FBD4B4904220091F7E75E
:10518000F3B50D4681B00988A81CFFF76BFE04003B
:1051900021D05C20015D01984C225043434A87187E
:1051A0003E4640367172384610301022A11C00F085
:1051B000B3F8608A388538462146203008221431F9
:1051C00000F0AAF8207F7070384621462A30172256
:1051D0001E3100F0A1F829460198FEF7ABFDFEBD97
:1051E000F0B523484C21007899B048432F49441822
:1051F000254640356E7AF00738D06021684600F0C9
:1052000027F9AA2168460170214610311022801C1E
:1052100000F082F8218D6846418221462031082223
:1052200005A800F079F8697868460177AF78012F12
:105230000FD1E87800280CD0214607A82A31172280
:10524000023000F069F86946487801210843694650
:10525000487010A8C776214643310622153000F069
:105260005BF810A806776846FFF7C6FD19B0F0BDD9
:10527000349000208E830020E14F0020FFFF0000CB
:105280000031005000330050D0800020E94F002052
:10529000EFC7FFFF0960FFFF0001020304050607D7
:1052A00008090A0B0C0D0E0F40E20100F2800020ED
:1052B00003460A780270401C491C002AF9D118469E
:1052C00070470000064C0125064E05E0E36807CC58
:1052D0002B430C3C98471034B442F7D3FBF7B4F897
:1052E000A0600020D060002003B40148019001BDFF
:1052F000D722030003B40148019001BDA73A03007F
:1053000003B40148019001BD1522030003B4014814
:10531000019001BD773B030003B40148019001BD3A
:10532000213B030003B40148019001BDD7290300CC
:1053300003B40148019001BD2B69020003B4014888
:10534000019001BDC12D030003B40148019001BDCE
:105350000921030003B40148019001BDC92D0300D8
:1053600003B40148019001BDEB31030003B40148CF
:10537000019001BD3D32030003B40148019001BD1D
:10538000D721030003B40148019001BD2F2F030072
:1053900003B40148019001BD998F020003B4014894
:1053A000019001BD938F020003B40148019001BD3B
:1053B000CD8C020003B40148019001BD418F020071
:1053C00003B40148019001BDB780020003B4014855
:1053D000019001BD0F3B030003B40148019001BDE2
:1053E000551B020003B40148019001BDCF2B0300FF
:1053F00003B40148019001BDCB2C030003B4014864
:10540000019001BD0990020003B40148019001BD63
:10541000831D020003B40148019001BDBF240300B5
:1054200003B40148019001BDB326030003B4014851
:10543000019001BDFD3D030003B40148019001BD91
:10544000197D020003B40148019001BD052202004C
:1054500003B40148019001BD533B030003B401486C
:10546000019001BD3126030003B40148019001BD44
:10547000B123030003B40148019001BDE1230300FF
:1054800003B40148019001BDA528030003B40148FD
:10549000019001BDD5AF020003B40148019001BDE8
:1054A000A1A5020003B40148019001BDE3A50200DB
:1054B00003B40148019001BD87A8020003B401486C
:1054C000019001BDA7A9020003B40148019001BDEC
:1054D00093AA020003B40148019001BDF9AB020098
:1054E00003B40148019001BD69AC020003B4014856
:1054F000019001BD17AD020003B40148019001BD48
:1055000077AD020003B40148019001BDF1AD020086
:1055100003B40148019001BD85AE020003B4014807
:10552000019001BD11AF020003B40148019001BD1B
:10553000859A020003B40148019001BDD3B2020074
:1055400003B40148019001BD7FA5020003B40148E6
:10555000019001BDD7A5020003B40148019001BD2F
:1055600075A5020003B40148019001BD19A702000E
:1055700003B40148019001BD5799020003B40148EA
:10558000019001BD8D3D030003B40148019001BDB0
:105590003350020003B40148019001BD5548020098
:1055A00003B40148019001BD1F50020003B401483B
:1055B000019001BD7F0C030003B40148019001BDBF
:1055C000AB0C030003B40148019001BDBF220200EF
:1055D00003B40148019001BDEB26030003B4014868
:1055E000019001BD3524030003B40148019001BDC1
:1055F0002F22020003B40148019001BDDD20030009
:1056000003B40148019001BD9D20030003B401488B
:10561000019001BD49E5020003B40148019001BDBC
:10562000F9E3020003B40148019001BD4BCD020033
:1056300003B40148019001BD99D1020003B40148AF
:10564000019001BDABD0020003B40148019001BD3F
:1056500069D0020003B40148019001BD77CF020078
:1056600003B40148019001BD01CC020003B401481C
:10567000019001BD29CC020003B40148019001BD95
:1056800015D2020003B40148019001BD8DD2020081
:1056900003B40148019001BDFD3A030003B4014881
:1056A000019001BDC52D020003B40148019001BD68
:1056B000CB7F020003B40148019001BDEB2A020038
:1056C00003B40148019001BD1F32020003B4014838
:1056D000019001BD2528030003B40148019001BDDC
:1056E000BD30020003B40148019001BDBB7F020040
:1056F00003B40148019001BDB938020003B4014868
:10570000019001BD7758020003B40148019001BD2A
:105710002D42020003B40148019001BD7B3002001C
:1057200003B40148019001BDCD2B020003B4014830
:10573000019001BDB93E020003B40148019001BDD2
:105740007F3E020003B40148019001BDBDE40200A8
:1057500003B40148019001BD61F4020003B40148A3
:10576000019001BD71E4020003B40148019001BD44
:1057700095E3020003B40148019001BD3DF602002B
:1057800003B40148019001BD912A020003B401480D
:10579000019001BDD33A030003B40148019001BD5B
:1057A000F38E020003B40148019001BD218E020076
:1057B00003B40148019001BD652C030003B4014806
:1057C000019001BDDB2E030003B40148019001BD2F
:1057D000231D020003B40148019001BDC32C030046
:1057E00003B40148019001BD1531030003B4014821
:1057F000019001BD3B66020003B40148019001BD68
:105800002B66020003B40148019001BD038D020024
:1058100003B40148019001BDCF8F020003B40148D9
:10582000019001BD1B66020003B40148019001BD57
:105830007920030003B40148019001BD2129030030
:1058400003B40148019001BDC768020003B40148D8
:10585000019001BD0D2C030003B40148019001BD6E
:105860009598020003B40148019001BD959902008A
:1058700003B40148019001BD6D9B020003B40148CF
:10588000019001BD739B020003B40148019001BD6A
:10589000533B030003B40148019001BD8725030079
:1058A00003B40148019001BD7B9C020003B4014890
:1058B000019001BD459F020003B40148019001BD64
:1058C000B7E3020003B40148019001BDE3E3020025
:1058D00003B40148019001BD299C020003B40148B2
:1058E000019001BDC59B020003B40148019001BDB8
:1058F000419C020003B40148019001BD2B9B0200B2
:1059000003B40148019001BDA59B020003B4014806
:10591000019001BDF3AF020003B40148019001BD45
:10592000D1290300F8B5040C8BB2264682B25E433F
:105930000D0C1046370C584336048019002179416C
:1059400016466E43370C36048019794126466E435D
:105950008919F8BD02E008C8121F08C1002AFAD14F
:1059600070477047002001E001C1121F002AFBD1DF
:105970007047000010B5002823D0124B0022001FF2
:10598000196803E0814203D80A4649680029F9D121
:10599000002A0AD01368841A9C4204D1006818189F
:1059A0001060104602E0506000E01860002907D047
:1059B00002680B1A934203D10B68D218026049683F
:1059C000416010BD88610020F0B50B30C108C900EE
:1059D000144F0026144A0FE003688B420BD38B420E
:1059E00005D95C1A4318456830C3083B00E043689A
:1059F000136002C004E0021D10680028ECD130469C
:105A0000002803D13868002801D00020F0BD064AE4
:105A100006481060064A121AD208D20044C001207B
:105A20003860D7E78C610020886100203C9000201E
:105A3000389100200101000A04280A040203AA0088
:105A400055032A00A001FFFF2C010000F3130020E2
:105A5000FFFF0000711000200008000099100020D6
:105A6000505A00200200000054430300605A0020F6
:105A70003204080006000100371100204D110020FB
:105A8000EF170020AD180020D11800207517002056
:105A900019210020251500209427030062B600DF9D
:105AA000A4E2020001DF81B01CCA0200F8BD02DFDF
:105AB00040CB0200F5E703DF84D4020004DF89B0A5
:105AC000941B030005DF00B51C2C020062B606DF44
:105AD000EC0C030070BD07DF0114000081120020F0
:105AE000002800001FA202000C1C0000DDA2020022
:105AF000001C00001FA2020001280000DDA102001E
:105B0000021400001FA402000000000000000000BA
:105B10000000000000000000000000000000000085
:105B20000000000000000000000000000000000075
:105B3000D85A002006000000085B0020305B0020DF
:105B4000D004080005000600FFFF0000611F0020D0
:105B500005040000B91C002026040000951D00204B
:105B6000230400003B1F002024040000151F002018
:105B700029040000D71C00202A040000AF1E0020CA
:105B80002C0400002D1C00202F0400007F1E00208C
:105B9000010800002D1D002000080000EF3F02005A
:105BA00000000000000000000000000000000000F5
:105BB00000000000000000000000000000000000E5
:105BC00000000000000000000000000000000000D5
:105BD00000000000000000000000000000000000C5
:105BE00000000000000000000000000000000000B5
